{
  "contractName": "Rental",
  "abi": [
    {
      "constant": true,
      "inputs": [
        {
          "name": "",
          "type": "uint256"
        }
      ],
      "name": "rentals",
      "outputs": [
        {
          "name": "",
          "type": "address"
        }
      ],
      "payable": false,
      "stateMutability": "view",
      "type": "function"
    },
    {
      "constant": false,
      "inputs": [
        {
          "name": "rentalId",
          "type": "uint256"
        }
      ],
      "name": "rent",
      "outputs": [
        {
          "name": "",
          "type": "uint256"
        }
      ],
      "payable": true,
      "stateMutability": "payable",
      "type": "function"
    },
    {
      "constant": true,
      "inputs": [],
      "name": "getRentals",
      "outputs": [
        {
          "name": "",
          "type": "address[16]"
        }
      ],
      "payable": false,
      "stateMutability": "view",
      "type": "function"
    },
    {
      "constant": true,
      "inputs": [],
      "name": "getBalance",
      "outputs": [
        {
          "name": "",
          "type": "uint256"
        }
      ],
      "payable": false,
      "stateMutability": "view",
      "type": "function"
    }
  ],
  "bytecode": "0x608060405234801561001057600080fd5b50610320806100206000396000f300608060405260043610610062576000357c0100000000000000000000000000000000000000000000000000000000900463ffffffff16806312065fe0146100675780635ea5da20146100925780637456be7d146100e5578063af94a1d114610119575b600080fd5b34801561007357600080fd5b5061007c610186565b6040518082815260200191505060405180910390f35b34801561009e57600080fd5b506100a76101a5565b6040518082601060200280838360005b838110156100d25780820151818401526020810190506100b7565b5050505090500191505060405180910390f35b61010360048036038101908080359060200190929190505050610226565b6040518082815260200191505060405180910390f35b34801561012557600080fd5b506101446004803603810190808035906020019092919050505061029b565b604051808273ffffffffffffffffffffffffffffffffffffffff1673ffffffffffffffffffffffffffffffffffffffff16815260200191505060405180910390f35b60003073ffffffffffffffffffffffffffffffffffffffff1631905090565b6101ad6102d0565b600060108060200260405190810160405280929190826010801561021c576020028201915b8160009054906101000a900473ffffffffffffffffffffffffffffffffffffffff1673ffffffffffffffffffffffffffffffffffffffff16815260200190600101908083116101d2575b5050505050905090565b60008082101580156102395750600f8211155b151561024457600080fd5b3360008360108110151561025457fe5b0160006101000a81548173ffffffffffffffffffffffffffffffffffffffff021916908373ffffffffffffffffffffffffffffffffffffffff160217905550819050919050565b6000816010811015156102aa57fe5b016000915054906101000a900473ffffffffffffffffffffffffffffffffffffffff1681565b610200604051908101604052806010906020820280388339808201915050905050905600a165627a7a72305820b099704264355fc3cbeb2051d186bdc67adf5be688858136c19993983c762ad50029",
  "source": "pragma solidity ^0.4.0;\n\ncontract Rental {\n    address[16] public rentals;\n    function rent(uint rentalId) public payable returns (uint){\n        require(rentalId >= 0 && rentalId <=15);\n        rentals[rentalId] = msg.sender;\n        return rentalId;\n    }\n\n    function getRentals() public view returns (address[16]){\n        return rentals;\n    }\n\n    function getBalance() public view returns (uint){\n        return address(this).balance;\n    }\n}\n",
  "sourcePath": "/Users/zack/projects/caster/contracts/Rental.sol",
  "compiler": {
    "name": "solc",
    "version": "0.4.24+commit.e67f0147.Emscripten.clang"
  },
  "schemaVersion": "2.0.0",
  "updatedAt": "2018-06-07T09:44:07.784Z"
}